{
  "abi": [
    {
      "inputs": [
        {
          "internalType": "string",
          "name": "_name",
          "type": "string"
        },
        {
          "internalType": "string",
          "name": "_symbol",
          "type": "string"
        }
      ],
      "stateMutability": "nonpayable",
      "type": "constructor"
    },
    {
      "anonymous": false,
      "inputs": [
        {
          "indexed": true,
          "internalType": "address",
          "name": "owner",
          "type": "address"
        },
        {
          "indexed": true,
          "internalType": "address",
          "name": "approved",
          "type": "address"
        },
        {
          "indexed": true,
          "internalType": "uint256",
          "name": "tokenId",
          "type": "uint256"
        }
      ],
      "name": "Approval",
      "type": "event"
    },
    {
      "anonymous": false,
      "inputs": [
        {
          "indexed": true,
          "internalType": "address",
          "name": "owner",
          "type": "address"
        },
        {
          "indexed": true,
          "internalType": "address",
          "name": "operator",
          "type": "address"
        },
        {
          "indexed": false,
          "internalType": "bool",
          "name": "approved",
          "type": "bool"
        }
      ],
      "name": "ApprovalForAll",
      "type": "event"
    },
    {
      "anonymous": false,
      "inputs": [
        {
          "indexed": true,
          "internalType": "address",
          "name": "from",
          "type": "address"
        },
        {
          "indexed": true,
          "internalType": "address",
          "name": "to",
          "type": "address"
        },
        {
          "indexed": true,
          "internalType": "uint256",
          "name": "tokenId",
          "type": "uint256"
        }
      ],
      "name": "Transfer",
      "type": "event"
    },
    {
      "inputs": [
        {
          "internalType": "address",
          "name": "to",
          "type": "address"
        },
        {
          "internalType": "uint256",
          "name": "tokenId",
          "type": "uint256"
        }
      ],
      "name": "approve",
      "outputs": [],
      "stateMutability": "nonpayable",
      "type": "function"
    },
    {
      "inputs": [
        {
          "internalType": "address",
          "name": "owner",
          "type": "address"
        }
      ],
      "name": "balanceOf",
      "outputs": [
        {
          "internalType": "uint256",
          "name": "",
          "type": "uint256"
        }
      ],
      "stateMutability": "view",
      "type": "function"
    },
    {
      "inputs": [],
      "name": "currentTokenId",
      "outputs": [
        {
          "internalType": "uint256",
          "name": "",
          "type": "uint256"
        }
      ],
      "stateMutability": "view",
      "type": "function"
    },
    {
      "inputs": [
        {
          "internalType": "uint256",
          "name": "tokenId",
          "type": "uint256"
        }
      ],
      "name": "getApproved",
      "outputs": [
        {
          "internalType": "address",
          "name": "",
          "type": "address"
        }
      ],
      "stateMutability": "view",
      "type": "function"
    },
    {
      "inputs": [
        {
          "internalType": "address",
          "name": "owner",
          "type": "address"
        },
        {
          "internalType": "address",
          "name": "operator",
          "type": "address"
        }
      ],
      "name": "isApprovedForAll",
      "outputs": [
        {
          "internalType": "bool",
          "name": "",
          "type": "bool"
        }
      ],
      "stateMutability": "view",
      "type": "function"
    },
    {
      "inputs": [
        {
          "internalType": "address",
          "name": "recipient",
          "type": "address"
        }
      ],
      "name": "mintTo",
      "outputs": [
        {
          "internalType": "uint256",
          "name": "",
          "type": "uint256"
        }
      ],
      "stateMutability": "payable",
      "type": "function"
    },
    {
      "inputs": [],
      "name": "name",
      "outputs": [
        {
          "internalType": "string",
          "name": "",
          "type": "string"
        }
      ],
      "stateMutability": "view",
      "type": "function"
    },
    {
      "inputs": [
        {
          "internalType": "uint256",
          "name": "tokenId",
          "type": "uint256"
        }
      ],
      "name": "ownerOf",
      "outputs": [
        {
          "internalType": "address",
          "name": "",
          "type": "address"
        }
      ],
      "stateMutability": "view",
      "type": "function"
    },
    {
      "inputs": [
        {
          "internalType": "address",
          "name": "from",
          "type": "address"
        },
        {
          "internalType": "address",
          "name": "to",
          "type": "address"
        },
        {
          "internalType": "uint256",
          "name": "tokenId",
          "type": "uint256"
        }
      ],
      "name": "safeTransferFrom",
      "outputs": [],
      "stateMutability": "nonpayable",
      "type": "function"
    },
    {
      "inputs": [
        {
          "internalType": "address",
          "name": "from",
          "type": "address"
        },
        {
          "internalType": "address",
          "name": "to",
          "type": "address"
        },
        {
          "internalType": "uint256",
          "name": "tokenId",
          "type": "uint256"
        },
        {
          "internalType": "bytes",
          "name": "data",
          "type": "bytes"
        }
      ],
      "name": "safeTransferFrom",
      "outputs": [],
      "stateMutability": "nonpayable",
      "type": "function"
    },
    {
      "inputs": [
        {
          "internalType": "address",
          "name": "operator",
          "type": "address"
        },
        {
          "internalType": "bool",
          "name": "approved",
          "type": "bool"
        }
      ],
      "name": "setApprovalForAll",
      "outputs": [],
      "stateMutability": "nonpayable",
      "type": "function"
    },
    {
      "inputs": [
        {
          "internalType": "bytes4",
          "name": "interfaceId",
          "type": "bytes4"
        }
      ],
      "name": "supportsInterface",
      "outputs": [
        {
          "internalType": "bool",
          "name": "",
          "type": "bool"
        }
      ],
      "stateMutability": "view",
      "type": "function"
    },
    {
      "inputs": [],
      "name": "symbol",
      "outputs": [
        {
          "internalType": "string",
          "name": "",
          "type": "string"
        }
      ],
      "stateMutability": "view",
      "type": "function"
    },
    {
      "inputs": [
        {
          "internalType": "uint256",
          "name": "id",
          "type": "uint256"
        }
      ],
      "name": "tokenURI",
      "outputs": [
        {
          "internalType": "string",
          "name": "",
          "type": "string"
        }
      ],
      "stateMutability": "view",
      "type": "function"
    },
    {
      "inputs": [
        {
          "internalType": "address",
          "name": "from",
          "type": "address"
        },
        {
          "internalType": "address",
          "name": "to",
          "type": "address"
        },
        {
          "internalType": "uint256",
          "name": "tokenId",
          "type": "uint256"
        }
      ],
      "name": "transferFrom",
      "outputs": [],
      "stateMutability": "nonpayable",
      "type": "function"
    }
  ],
  "bytecode": {
    "object": "0x60806040523480156200001157600080fd5b50604051620016dc380380620016dc8339810160408190526200003491620001e1565b8151829082906200004d9060009060208501906200006e565b508051620000639060019060208401906200006e565b505050505062000287565b8280546200007c906200024b565b90600052602060002090601f016020900481019282620000a05760008555620000eb565b82601f10620000bb57805160ff1916838001178555620000eb565b82800160010185558215620000eb579182015b82811115620000eb578251825591602001919060010190620000ce565b50620000f9929150620000fd565b5090565b5b80821115620000f95760008155600101620000fe565b634e487b7160e01b600052604160045260246000fd5b600082601f8301126200013c57600080fd5b81516001600160401b038082111562000159576200015962000114565b604051601f8301601f19908116603f0116810190828211818310171562000184576200018462000114565b81604052838152602092508683858801011115620001a157600080fd5b600091505b83821015620001c55785820183015181830184015290820190620001a6565b83821115620001d75760008385830101525b9695505050505050565b60008060408385031215620001f557600080fd5b82516001600160401b03808211156200020d57600080fd5b6200021b868387016200012a565b935060208501519150808211156200023257600080fd5b5062000241858286016200012a565b9150509250929050565b600181811c908216806200026057607f821691505b6020821081036200028157634e487b7160e01b600052602260045260246000fd5b50919050565b61144580620002976000396000f3fe6080604052600436106100e75760003560e01c80636352211e1161008a578063a22cb46511610059578063a22cb46514610269578063b88d4fde14610289578063c87b56dd146102a9578063e985e9c5146102c957600080fd5b80636352211e1461020157806370a0823114610221578063755edd171461024157806395d89b411461025457600080fd5b8063081812fc116100c6578063081812fc14610167578063095ea7b31461019f57806323b872dd146101c157806342842e0e146101e157600080fd5b80629a9b7b146100ec57806301ffc9a71461011557806306fdde0314610145575b600080fd5b3480156100f857600080fd5b5061010260065481565b6040519081526020015b60405180910390f35b34801561012157600080fd5b50610135610130366004610f9e565b610312565b604051901515815260200161010c565b34801561015157600080fd5b5061015a610364565b60405161010c919061100f565b34801561017357600080fd5b50610187610182366004611022565b6103f6565b6040516001600160a01b03909116815260200161010c565b3480156101ab57600080fd5b506101bf6101ba366004611057565b61041d565b005b3480156101cd57600080fd5b506101bf6101dc366004611081565b610537565b3480156101ed57600080fd5b506101bf6101fc366004611081565b610568565b34801561020d57600080fd5b5061018761021c366004611022565b610583565b34801561022d57600080fd5b5061010261023c3660046110bd565b6105e3565b61010261024f3660046110bd565b610669565b34801561026057600080fd5b5061015a61068c565b34801561027557600080fd5b506101bf6102843660046110d8565b61069b565b34801561029557600080fd5b506101bf6102a436600461112a565b6106aa565b3480156102b557600080fd5b5061015a6102c4366004611022565b6106e2565b3480156102d557600080fd5b506101356102e4366004611206565b6001600160a01b03918216600090815260056020908152604080832093909416825291909152205460ff1690565b60006001600160e01b031982166380ac58cd60e01b148061034357506001600160e01b03198216635b5e139f60e01b145b8061035e57506301ffc9a760e01b6001600160e01b03198316145b92915050565b60606000805461037390611239565b80601f016020809104026020016040519081016040528092919081815260200182805461039f90611239565b80156103ec5780601f106103c1576101008083540402835291602001916103ec565b820191906000526020600020905b8154815290600101906020018083116103cf57829003601f168201915b5050505050905090565b6000610401826106ed565b506000908152600460205260409020546001600160a01b031690565b600061042882610583565b9050806001600160a01b0316836001600160a01b03160361049a5760405162461bcd60e51b815260206004820152602160248201527f4552433732313a20617070726f76616c20746f2063757272656e74206f776e656044820152603960f91b60648201526084015b60405180910390fd5b336001600160a01b03821614806104b657506104b681336102e4565b6105285760405162461bcd60e51b815260206004820152603d60248201527f4552433732313a20617070726f76652063616c6c6572206973206e6f7420746f60448201527f6b656e206f776e6572206f7220617070726f76656420666f7220616c6c0000006064820152608401610491565b610532838361074f565b505050565b61054133826107bd565b61055d5760405162461bcd60e51b815260040161049190611273565b61053283838361083c565b610532838383604051806020016040528060008152506106aa565b6000818152600260205260408120546001600160a01b03168061035e5760405162461bcd60e51b8152602060048201526018602482015277115490cdcc8c4e881a5b9d985b1a59081d1bdad95b88125160421b6044820152606401610491565b60006001600160a01b03821661064d5760405162461bcd60e51b815260206004820152602960248201527f4552433732313a2061646472657373207a65726f206973206e6f7420612076616044820152683634b21037bbb732b960b91b6064820152608401610491565b506001600160a01b031660009081526003602052604090205490565b60008060066000815461067b906112d6565b9182905550905061035e83826109ad565b60606001805461037390611239565b6106a63383836109c7565b5050565b6106b433836107bd565b6106d05760405162461bcd60e51b815260040161049190611273565b6106dc84848484610a95565b50505050565b606061035e82610ac8565b6000818152600260205260409020546001600160a01b031661074c5760405162461bcd60e51b8152602060048201526018602482015277115490cdcc8c4e881a5b9d985b1a59081d1bdad95b88125160421b6044820152606401610491565b50565b600081815260046020526040902080546001600160a01b0319166001600160a01b038416908117909155819061078482610583565b6001600160a01b03167f8c5be1e5ebec7d5bd14f71427d1e84f3dd0314c0f7b2291e5b200ac8c7c3b92560405160405180910390a45050565b6000806107c983610583565b9050806001600160a01b0316846001600160a01b0316148061081057506001600160a01b0380821660009081526005602090815260408083209388168352929052205460ff165b806108345750836001600160a01b0316610829846103f6565b6001600160a01b0316145b949350505050565b826001600160a01b031661084f82610583565b6001600160a01b0316146108755760405162461bcd60e51b8152600401610491906112ef565b6001600160a01b0382166108d75760405162461bcd60e51b8152602060048201526024808201527f4552433732313a207472616e7366657220746f20746865207a65726f206164646044820152637265737360e01b6064820152608401610491565b6108e48383836001610b5b565b826001600160a01b03166108f782610583565b6001600160a01b03161461091d5760405162461bcd60e51b8152600401610491906112ef565b600081815260046020908152604080832080546001600160a01b03199081169091556001600160a01b0387811680865260038552838620805460001901905590871680865283862080546001019055868652600290945282852080549092168417909155905184937fddf252ad1be2c89b69c2b068fc378daa952ba7f163c4a11628f55a4df523b3ef91a4505050565b6106a6828260405180602001604052806000815250610be3565b816001600160a01b0316836001600160a01b031603610a285760405162461bcd60e51b815260206004820152601960248201527f4552433732313a20617070726f766520746f2063616c6c6572000000000000006044820152606401610491565b6001600160a01b03838116600081815260056020908152604080832094871680845294825291829020805460ff191686151590811790915591519182527f17307eab39ab6107e8899845ad3d59bd9653f200f220920489ca2b5937696c31910160405180910390a3505050565b610aa084848461083c565b610aac84848484610c16565b6106dc5760405162461bcd60e51b815260040161049190611334565b60606000610ad583610d17565b600101905060008167ffffffffffffffff811115610af557610af5611114565b6040519080825280601f01601f191660200182016040528015610b1f576020820181803683370190505b5090508181016020015b600019016f181899199a1a9b1b9c1cb0b131b232b360811b600a86061a8153600a8504945084610b2957509392505050565b60018111156106dc576001600160a01b03841615610ba1576001600160a01b03841660009081526003602052604081208054839290610b9b908490611386565b90915550505b6001600160a01b038316156106dc576001600160a01b03831660009081526003602052604081208054839290610bd890849061139d565b909155505050505050565b610bed8383610def565b610bfa6000848484610c16565b6105325760405162461bcd60e51b815260040161049190611334565b60006001600160a01b0384163b15610d0c57604051630a85bd0160e11b81526001600160a01b0385169063150b7a0290610c5a9033908990889088906004016113b5565b6020604051808303816000875af1925050508015610c95575060408051601f3d908101601f19168201909252610c92918101906113f2565b60015b610cf2573d808015610cc3576040519150601f19603f3d011682016040523d82523d6000602084013e610cc8565b606091505b508051600003610cea5760405162461bcd60e51b815260040161049190611334565b805181602001fd5b6001600160e01b031916630a85bd0160e11b149050610834565b506001949350505050565b60008072184f03e93ff9f4daa797ed6e38ed64bf6a1f0160401b8310610d565772184f03e93ff9f4daa797ed6e38ed64bf6a1f0160401b830492506040015b6d04ee2d6d415b85acef81000000008310610d82576d04ee2d6d415b85acef8100000000830492506020015b662386f26fc100008310610da057662386f26fc10000830492506010015b6305f5e1008310610db8576305f5e100830492506008015b6127108310610dcc57612710830492506004015b60648310610dde576064830492506002015b600a831061035e5760010192915050565b6001600160a01b038216610e455760405162461bcd60e51b815260206004820181905260248201527f4552433732313a206d696e7420746f20746865207a65726f20616464726573736044820152606401610491565b6000818152600260205260409020546001600160a01b031615610eaa5760405162461bcd60e51b815260206004820152601c60248201527f4552433732313a20746f6b656e20616c7265616479206d696e746564000000006044820152606401610491565b610eb8600083836001610b5b565b6000818152600260205260409020546001600160a01b031615610f1d5760405162461bcd60e51b815260206004820152601c60248201527f4552433732313a20746f6b656e20616c7265616479206d696e746564000000006044820152606401610491565b6001600160a01b038216600081815260036020908152604080832080546001019055848352600290915280822080546001600160a01b0319168417905551839291907fddf252ad1be2c89b69c2b068fc378daa952ba7f163c4a11628f55a4df523b3ef908290a45050565b6001600160e01b03198116811461074c57600080fd5b600060208284031215610fb057600080fd5b8135610fbb81610f88565b9392505050565b6000815180845260005b81811015610fe857602081850181015186830182015201610fcc565b81811115610ffa576000602083870101525b50601f01601f19169290920160200192915050565b602081526000610fbb6020830184610fc2565b60006020828403121561103457600080fd5b5035919050565b80356001600160a01b038116811461105257600080fd5b919050565b6000806040838503121561106a57600080fd5b6110738361103b565b946020939093013593505050565b60008060006060848603121561109657600080fd5b61109f8461103b565b92506110ad6020850161103b565b9150604084013590509250925092565b6000602082840312156110cf57600080fd5b610fbb8261103b565b600080604083850312156110eb57600080fd5b6110f48361103b565b91506020830135801515811461110957600080fd5b809150509250929050565b634e487b7160e01b600052604160045260246000fd5b6000806000806080858703121561114057600080fd5b6111498561103b565b93506111576020860161103b565b925060408501359150606085013567ffffffffffffffff8082111561117b57600080fd5b818701915087601f83011261118f57600080fd5b8135818111156111a1576111a1611114565b604051601f8201601f19908116603f011681019083821181831017156111c9576111c9611114565b816040528281528a60208487010111156111e257600080fd5b82602086016020830137600060208483010152809550505050505092959194509250565b6000806040838503121561121957600080fd5b6112228361103b565b91506112306020840161103b565b90509250929050565b600181811c9082168061124d57607f821691505b60208210810361126d57634e487b7160e01b600052602260045260246000fd5b50919050565b6020808252602d908201527f4552433732313a2063616c6c6572206973206e6f7420746f6b656e206f776e6560408201526c1c881bdc88185c1c1c9bdd9959609a1b606082015260800190565b634e487b7160e01b600052601160045260246000fd5b6000600182016112e8576112e86112c0565b5060010190565b60208082526025908201527f4552433732313a207472616e736665722066726f6d20696e636f72726563742060408201526437bbb732b960d91b606082015260800190565b60208082526032908201527f4552433732313a207472616e7366657220746f206e6f6e20455243373231526560408201527131b2b4bb32b91034b6b83632b6b2b73a32b960711b606082015260800190565b600082821015611398576113986112c0565b500390565b600082198211156113b0576113b06112c0565b500190565b6001600160a01b03858116825284166020820152604081018390526080606082018190526000906113e890830184610fc2565b9695505050505050565b60006020828403121561140457600080fd5b8151610fbb81610f8856fea264697066735822122061108b05dca5310ea3dbc45d0d3fe6c189606ad882cf1f9a75bfd561b9d9d5b864736f6c634300080d0033",
    "linkReferences": {}
  },
  "methodIdentifiers": {
    "approve(address,uint256)": "095ea7b3",
    "balanceOf(address)": "70a08231",
    "currentTokenId()": "009a9b7b",
    "getApproved(uint256)": "081812fc",
    "isApprovedForAll(address,address)": "e985e9c5",
    "mintTo(address)": "755edd17",
    "name()": "06fdde03",
    "ownerOf(uint256)": "6352211e",
    "safeTransferFrom(address,address,uint256)": "42842e0e",
    "safeTransferFrom(address,address,uint256,bytes)": "b88d4fde",
    "setApprovalForAll(address,bool)": "a22cb465",
    "supportsInterface(bytes4)": "01ffc9a7",
    "symbol()": "95d89b41",
    "tokenURI(uint256)": "c87b56dd",
    "transferFrom(address,address,uint256)": "23b872dd"
  },
  "id": 25
}