{
  "abi": [
    {
      "inputs": [
        {
          "internalType": "string",
          "name": "_greeting",
          "type": "string"
        }
      ],
      "stateMutability": "nonpayable",
      "type": "constructor"
    },
    {
      "inputs": [],
      "name": "greet",
      "outputs": [
        {
          "internalType": "string",
          "name": "",
          "type": "string"
        }
      ],
      "stateMutability": "view",
      "type": "function"
    },
    {
      "inputs": [
        {
          "internalType": "string",
          "name": "_greeting",
          "type": "string"
        }
      ],
      "name": "updateGreeting",
      "outputs": [],
      "stateMutability": "nonpayable",
      "type": "function"
    },
    {
      "inputs": [],
      "name": "version",
      "outputs": [
        {
          "internalType": "uint256",
          "name": "",
          "type": "uint256"
        }
      ],
      "stateMutability": "view",
      "type": "function"
    }
  ],
  "bytecode": {
    "object": "0x6080604052600060015534801561001557600080fd5b506040516105ac3803806105ac833981016040819052610034916100fd565b805161004790600090602084019061004e565b5050610206565b82805461005a906101cc565b90600052602060002090601f01602090048101928261007c57600085556100c2565b82601f1061009557805160ff19168380011785556100c2565b828001600101855582156100c2579182015b828111156100c25782518255916020019190600101906100a7565b506100ce9291506100d2565b5090565b5b808211156100ce57600081556001016100d3565b634e487b7160e01b600052604160045260246000fd5b6000602080838503121561011057600080fd5b82516001600160401b038082111561012757600080fd5b818501915085601f83011261013b57600080fd5b81518181111561014d5761014d6100e7565b604051601f8201601f19908116603f01168101908382118183101715610175576101756100e7565b81604052828152888684870101111561018d57600080fd5b600093505b828410156101af5784840186015181850187015292850192610192565b828411156101c05760008684830101525b98975050505050505050565b600181811c908216806101e057607f821691505b60208210810361020057634e487b7160e01b600052602260045260246000fd5b50919050565b610397806102156000396000f3fe608060405234801561001057600080fd5b50600436106100415760003560e01c80632867cc441461004657806354fd4d501461005b578063cfae321714610077575b600080fd5b6100596100543660046101fb565b61008c565b005b61006460015481565b6040519081526020015b60405180910390f35b61007f6100ba565b60405161006e91906102ac565b600180600082825461009e9190610301565b909155505080516100b690600090602084019061014c565b5050565b6060600080546100c990610327565b80601f01602080910402602001604051908101604052809291908181526020018280546100f590610327565b80156101425780601f1061011757610100808354040283529160200191610142565b820191906000526020600020905b81548152906001019060200180831161012557829003601f168201915b5050505050905090565b82805461015890610327565b90600052602060002090601f01602090048101928261017a57600085556101c0565b82601f1061019357805160ff19168380011785556101c0565b828001600101855582156101c0579182015b828111156101c05782518255916020019190600101906101a5565b506101cc9291506101d0565b5090565b5b808211156101cc57600081556001016101d1565b634e487b7160e01b600052604160045260246000fd5b60006020828403121561020d57600080fd5b813567ffffffffffffffff8082111561022557600080fd5b818401915084601f83011261023957600080fd5b81358181111561024b5761024b6101e5565b604051601f8201601f19908116603f01168101908382118183101715610273576102736101e5565b8160405282815287602084870101111561028c57600080fd5b826020860160208301376000928101602001929092525095945050505050565b600060208083528351808285015260005b818110156102d9578581018301518582016040015282016102bd565b818111156102eb576000604083870101525b50601f01601f1916929092016040019392505050565b6000821982111561032257634e487b7160e01b600052601160045260246000fd5b500190565b600181811c9082168061033b57607f821691505b60208210810361035b57634e487b7160e01b600052602260045260246000fd5b5091905056fea26469706673582212208dcd9a12945863e9b2d502f4a2d7328782881f78400aaea3c22abc96cf80966164736f6c634300080d0033",
    "linkReferences": {}
  },
  "methodIdentifiers": {
    "greet()": "cfae3217",
    "updateGreeting(string)": "2867cc44",
    "version()": "54fd4d50"
  },
  "id": 15
}